{
  "_format": "hh-sol-artifact-1",
  "contractName": "SBFMakeover",
  "sourceName": "contracts/SBFMakeover.sol",
  "abi": [
    {
      "inputs": [
        {
          "internalType": "uint256",
          "name": "maxSupply",
          "type": "uint256"
        }
      ],
      "stateMutability": "nonpayable",
      "type": "constructor"
    },
    {
      "anonymous": false,
      "inputs": [
        {
          "indexed": true,
          "internalType": "address",
          "name": "owner",
          "type": "address"
        },
        {
          "indexed": true,
          "internalType": "address",
          "name": "approved",
          "type": "address"
        },
        {
          "indexed": true,
          "internalType": "uint256",
          "name": "tokenId",
          "type": "uint256"
        }
      ],
      "name": "Approval",
      "type": "event"
    },
    {
      "anonymous": false,
      "inputs": [
        {
          "indexed": true,
          "internalType": "address",
          "name": "owner",
          "type": "address"
        },
        {
          "indexed": true,
          "internalType": "address",
          "name": "operator",
          "type": "address"
        },
        {
          "indexed": false,
          "internalType": "bool",
          "name": "approved",
          "type": "bool"
        }
      ],
      "name": "ApprovalForAll",
      "type": "event"
    },
    {
      "anonymous": false,
      "inputs": [
        {
          "indexed": true,
          "internalType": "address",
          "name": "previousOwner",
          "type": "address"
        },
        {
          "indexed": true,
          "internalType": "address",
          "name": "newOwner",
          "type": "address"
        }
      ],
      "name": "OwnershipTransferred",
      "type": "event"
    },
    {
      "anonymous": false,
      "inputs": [
        {
          "indexed": true,
          "internalType": "address",
          "name": "from",
          "type": "address"
        },
        {
          "indexed": true,
          "internalType": "address",
          "name": "to",
          "type": "address"
        },
        {
          "indexed": true,
          "internalType": "uint256",
          "name": "tokenId",
          "type": "uint256"
        }
      ],
      "name": "Transfer",
      "type": "event"
    },
    {
      "inputs": [
        {
          "internalType": "address",
          "name": "to",
          "type": "address"
        },
        {
          "internalType": "uint256",
          "name": "tokenId",
          "type": "uint256"
        }
      ],
      "name": "approve",
      "outputs": [],
      "stateMutability": "nonpayable",
      "type": "function"
    },
    {
      "inputs": [
        {
          "internalType": "address",
          "name": "owner",
          "type": "address"
        }
      ],
      "name": "balanceOf",
      "outputs": [
        {
          "internalType": "uint256",
          "name": "",
          "type": "uint256"
        }
      ],
      "stateMutability": "view",
      "type": "function"
    },
    {
      "inputs": [
        {
          "internalType": "bytes",
          "name": "sig",
          "type": "bytes"
        },
        {
          "internalType": "string",
          "name": "text",
          "type": "string"
        },
        {
          "internalType": "address",
          "name": "sender",
          "type": "address"
        }
      ],
      "name": "checkSignature",
      "outputs": [
        {
          "internalType": "bool",
          "name": "",
          "type": "bool"
        }
      ],
      "stateMutability": "pure",
      "type": "function"
    },
    {
      "inputs": [
        {
          "internalType": "uint256",
          "name": "tokenId",
          "type": "uint256"
        }
      ],
      "name": "getApproved",
      "outputs": [
        {
          "internalType": "address",
          "name": "",
          "type": "address"
        }
      ],
      "stateMutability": "view",
      "type": "function"
    },
    {
      "inputs": [
        {
          "internalType": "string",
          "name": "text",
          "type": "string"
        }
      ],
      "name": "getFinalHash",
      "outputs": [
        {
          "internalType": "bytes32",
          "name": "",
          "type": "bytes32"
        }
      ],
      "stateMutability": "pure",
      "type": "function"
    },
    {
      "inputs": [
        {
          "internalType": "string",
          "name": "_text",
          "type": "string"
        }
      ],
      "name": "getHash",
      "outputs": [
        {
          "internalType": "bytes32",
          "name": "",
          "type": "bytes32"
        }
      ],
      "stateMutability": "pure",
      "type": "function"
    },
    {
      "inputs": [],
      "name": "getLicenseName",
      "outputs": [
        {
          "internalType": "string",
          "name": "",
          "type": "string"
        }
      ],
      "stateMutability": "view",
      "type": "function"
    },
    {
      "inputs": [],
      "name": "getLicenseURI",
      "outputs": [
        {
          "internalType": "string",
          "name": "",
          "type": "string"
        }
      ],
      "stateMutability": "view",
      "type": "function"
    },
    {
      "inputs": [
        {
          "internalType": "address",
          "name": "owner",
          "type": "address"
        },
        {
          "internalType": "address",
          "name": "operator",
          "type": "address"
        }
      ],
      "name": "isApprovedForAll",
      "outputs": [
        {
          "internalType": "bool",
          "name": "",
          "type": "bool"
        }
      ],
      "stateMutability": "view",
      "type": "function"
    },
    {
      "inputs": [],
      "name": "maxMakeovers",
      "outputs": [
        {
          "internalType": "uint256",
          "name": "",
          "type": "uint256"
        }
      ],
      "stateMutability": "view",
      "type": "function"
    },
    {
      "inputs": [],
      "name": "name",
      "outputs": [
        {
          "internalType": "string",
          "name": "",
          "type": "string"
        }
      ],
      "stateMutability": "view",
      "type": "function"
    },
    {
      "inputs": [],
      "name": "owner",
      "outputs": [
        {
          "internalType": "address",
          "name": "",
          "type": "address"
        }
      ],
      "stateMutability": "view",
      "type": "function"
    },
    {
      "inputs": [
        {
          "internalType": "uint256",
          "name": "tokenId",
          "type": "uint256"
        }
      ],
      "name": "ownerOf",
      "outputs": [
        {
          "internalType": "address",
          "name": "",
          "type": "address"
        }
      ],
      "stateMutability": "view",
      "type": "function"
    },
    {
      "inputs": [],
      "name": "renounceOwnership",
      "outputs": [],
      "stateMutability": "nonpayable",
      "type": "function"
    },
    {
      "inputs": [
        {
          "internalType": "address",
          "name": "to",
          "type": "address"
        },
        {
          "internalType": "string",
          "name": "uri",
          "type": "string"
        }
      ],
      "name": "safeMint",
      "outputs": [],
      "stateMutability": "nonpayable",
      "type": "function"
    },
    {
      "inputs": [
        {
          "internalType": "address",
          "name": "from",
          "type": "address"
        },
        {
          "internalType": "address",
          "name": "to",
          "type": "address"
        },
        {
          "internalType": "uint256",
          "name": "tokenId",
          "type": "uint256"
        }
      ],
      "name": "safeTransferFrom",
      "outputs": [],
      "stateMutability": "nonpayable",
      "type": "function"
    },
    {
      "inputs": [
        {
          "internalType": "address",
          "name": "from",
          "type": "address"
        },
        {
          "internalType": "address",
          "name": "to",
          "type": "address"
        },
        {
          "internalType": "uint256",
          "name": "tokenId",
          "type": "uint256"
        },
        {
          "internalType": "bytes",
          "name": "data",
          "type": "bytes"
        }
      ],
      "name": "safeTransferFrom",
      "outputs": [],
      "stateMutability": "nonpayable",
      "type": "function"
    },
    {
      "inputs": [
        {
          "internalType": "address",
          "name": "operator",
          "type": "address"
        },
        {
          "internalType": "bool",
          "name": "approved",
          "type": "bool"
        }
      ],
      "name": "setApprovalForAll",
      "outputs": [],
      "stateMutability": "nonpayable",
      "type": "function"
    },
    {
      "inputs": [
        {
          "internalType": "bytes",
          "name": "sig",
          "type": "bytes"
        }
      ],
      "name": "splitSignature",
      "outputs": [
        {
          "internalType": "bytes32",
          "name": "r",
          "type": "bytes32"
        },
        {
          "internalType": "bytes32",
          "name": "s",
          "type": "bytes32"
        },
        {
          "internalType": "uint8",
          "name": "v",
          "type": "uint8"
        }
      ],
      "stateMutability": "pure",
      "type": "function"
    },
    {
      "inputs": [
        {
          "internalType": "bytes4",
          "name": "interfaceId",
          "type": "bytes4"
        }
      ],
      "name": "supportsInterface",
      "outputs": [
        {
          "internalType": "bool",
          "name": "",
          "type": "bool"
        }
      ],
      "stateMutability": "view",
      "type": "function"
    },
    {
      "inputs": [],
      "name": "symbol",
      "outputs": [
        {
          "internalType": "string",
          "name": "",
          "type": "string"
        }
      ],
      "stateMutability": "view",
      "type": "function"
    },
    {
      "inputs": [
        {
          "internalType": "uint256",
          "name": "index",
          "type": "uint256"
        }
      ],
      "name": "tokenByIndex",
      "outputs": [
        {
          "internalType": "uint256",
          "name": "",
          "type": "uint256"
        }
      ],
      "stateMutability": "view",
      "type": "function"
    },
    {
      "inputs": [
        {
          "internalType": "address",
          "name": "owner",
          "type": "address"
        },
        {
          "internalType": "uint256",
          "name": "index",
          "type": "uint256"
        }
      ],
      "name": "tokenOfOwnerByIndex",
      "outputs": [
        {
          "internalType": "uint256",
          "name": "",
          "type": "uint256"
        }
      ],
      "stateMutability": "view",
      "type": "function"
    },
    {
      "inputs": [
        {
          "internalType": "uint256",
          "name": "tokenId",
          "type": "uint256"
        }
      ],
      "name": "tokenURI",
      "outputs": [
        {
          "internalType": "string",
          "name": "",
          "type": "string"
        }
      ],
      "stateMutability": "view",
      "type": "function"
    },
    {
      "inputs": [],
      "name": "totalSupply",
      "outputs": [
        {
          "internalType": "uint256",
          "name": "",
          "type": "uint256"
        }
      ],
      "stateMutability": "view",
      "type": "function"
    },
    {
      "inputs": [
        {
          "internalType": "address",
          "name": "from",
          "type": "address"
        },
        {
          "internalType": "address",
          "name": "to",
          "type": "address"
        },
        {
          "internalType": "uint256",
          "name": "tokenId",
          "type": "uint256"
        }
      ],
      "name": "transferFrom",
      "outputs": [],
      "stateMutability": "nonpayable",
      "type": "function"
    },
    {
      "inputs": [
        {
          "internalType": "address",
          "name": "newOwner",
          "type": "address"
        }
      ],
      "name": "transferOwnership",
      "outputs": [],
      "stateMutability": "nonpayable",
      "type": "function"
    }
  ],
  "bytecode": "0x60806040523480156200001157600080fd5b506040516200457c3803806200457c8339818101604052810190620000379190620002f3565b60026040518060400160405280600b81526020017f5342464d616b656f7665720000000000000000000000000000000000000000008152506040518060400160405280600481526020017f5342464d000000000000000000000000000000000000000000000000000000008152508160009080519060200190620000bd92919062000203565b508060019080519060200190620000d692919062000203565b505050620000f9620000ed6200013560201b60201c565b6200013d60201b60201c565b80600b60146101000a81548160ff0219169083600581111562000121576200012062000325565b5b02179055505080600d8190555050620003b8565b600033905090565b6000600b60009054906101000a900473ffffffffffffffffffffffffffffffffffffffff16905081600b60006101000a81548173ffffffffffffffffffffffffffffffffffffffff021916908373ffffffffffffffffffffffffffffffffffffffff1602179055508173ffffffffffffffffffffffffffffffffffffffff168173ffffffffffffffffffffffffffffffffffffffff167f8be0079c531659141344cd1fd0a4f28419497f9722a3daafe3b4186f6b6457e060405160405180910390a35050565b828054620002119062000383565b90600052602060002090601f01602090048101928262000235576000855562000281565b82601f106200025057805160ff191683800117855562000281565b8280016001018555821562000281579182015b828111156200028057825182559160200191906001019062000263565b5b50905062000290919062000294565b5090565b5b80821115620002af57600081600090555060010162000295565b5090565b600080fd5b6000819050919050565b620002cd81620002b8565b8114620002d957600080fd5b50565b600081519050620002ed81620002c2565b92915050565b6000602082840312156200030c576200030b620002b3565b5b60006200031c84828501620002dc565b91505092915050565b7f4e487b7100000000000000000000000000000000000000000000000000000000600052602160045260246000fd5b7f4e487b7100000000000000000000000000000000000000000000000000000000600052602260045260246000fd5b600060028204905060018216806200039c57607f821691505b602082108103620003b257620003b162000354565b5b50919050565b6141b480620003c86000396000f3fe608060405234801561001057600080fd5b50600436106101a95760003560e01c80636352211e116100f9578063a7bb580311610097578063c87b56dd11610071578063c87b56dd146104f8578063d204c45e14610528578063e985e9c514610544578063f2fde38b14610574576101a9565b8063a7bb58031461048c578063b88d4fde146104be578063c7db2893146104da576101a9565b80638da5cb5b116100d35780638da5cb5b1461041657806395d89b4114610434578063a22cb46514610452578063a341793b1461046e576101a9565b80636352211e146103ac57806370a08231146103dc578063715018a61461040c576101a9565b806323b872dd116101665780633e53f85a116101405780633e53f85a1461030057806342842e0e146103305780634f6ccce71461034c5780635b6beeb91461037c576101a9565b806323b872dd146102845780632bbe8e20146102a05780632f745c59146102d0576101a9565b806301ffc9a7146101ae57806306fdde03146101de578063081812fc146101fc578063095ea7b31461022c578063163854651461024857806318160ddd14610266575b600080fd5b6101c860048036038101906101c39190612b99565b610590565b6040516101d59190612be1565b60405180910390f35b6101e66105a2565b6040516101f39190612c95565b60405180910390f35b61021660048036038101906102119190612ced565b610634565b6040516102239190612d5b565b60405180910390f35b61024660048036038101906102419190612da2565b61067a565b005b610250610791565b60405161025d9190612df1565b60405180910390f35b61026e610797565b60405161027b9190612df1565b60405180910390f35b61029e60048036038101906102999190612e0c565b6107a4565b005b6102ba60048036038101906102b59190612f94565b610804565b6040516102c79190612ff6565b60405180910390f35b6102ea60048036038101906102e59190612da2565b610846565b6040516102f79190612df1565b60405180910390f35b61031a600480360381019061031591906130b2565b6108eb565b6040516103279190612be1565b60405180910390f35b61034a60048036038101906103459190612e0c565b6109c2565b005b61036660048036038101906103619190612ced565b6109e2565b6040516103739190612df1565b60405180910390f35b61039660048036038101906103919190612f94565b610a53565b6040516103a39190612ff6565b60405180910390f35b6103c660048036038101906103c19190612ced565b610a64565b6040516103d39190612d5b565b60405180910390f35b6103f660048036038101906103f1919061313d565b610aea565b6040516104039190612df1565b60405180910390f35b610414610ba1565b005b61041e610bb5565b60405161042b9190612d5b565b60405180910390f35b61043c610bdf565b6040516104499190612c95565b60405180910390f35b61046c60048036038101906104679190613196565b610c71565b005b610476610c87565b6040516104839190612c95565b60405180910390f35b6104a660048036038101906104a191906131d6565b610ca6565b6040516104b59392919061323b565b60405180910390f35b6104d860048036038101906104d39190613272565b610d0e565b005b6104e2610d70565b6040516104ef9190612c95565b60405180910390f35b610512600480360381019061050d9190612ced565b610dda565b60405161051f9190612c95565b60405180910390f35b610542600480360381019061053d91906132f5565b610dec565b005b61055e60048036038101906105599190613351565b610e73565b60405161056b9190612be1565b60405180910390f35b61058e6004803603810190610589919061313d565b610f07565b005b600061059b82610f8a565b9050919050565b6060600080546105b1906133c0565b80601f01602080910402602001604051908101604052809291908181526020018280546105dd906133c0565b801561062a5780601f106105ff5761010080835404028352916020019161062a565b820191906000526020600020905b81548152906001019060200180831161060d57829003601f168201915b5050505050905090565b600061063f82611004565b6004600083815260200190815260200160002060009054906101000a900473ffffffffffffffffffffffffffffffffffffffff169050919050565b600061068582610a64565b90508073ffffffffffffffffffffffffffffffffffffffff168373ffffffffffffffffffffffffffffffffffffffff16036106f5576040517f08c379a00000000000000000000000000000000000000000000000000000000081526004016106ec90613463565b60405180910390fd5b8073ffffffffffffffffffffffffffffffffffffffff1661071461104f565b73ffffffffffffffffffffffffffffffffffffffff16148061074357506107428161073d61104f565b610e73565b5b610782576040517f08c379a0000000000000000000000000000000000000000000000000000000008152600401610779906134f5565b60405180910390fd5b61078c8383611057565b505050565b600d5481565b6000600880549050905090565b6107b56107af61104f565b82611110565b6107f4576040517f08c379a00000000000000000000000000000000000000000000000000000000081526004016107eb90613587565b60405180910390fd5b6107ff8383836111a5565b505050565b60008082805190602001209050600081604051602001610824919061361f565b6040516020818303038152906040528051906020012090508092505050919050565b600061085183610aea565b8210610892576040517f08c379a0000000000000000000000000000000000000000000000000000000008152600401610889906136b7565b60405180910390fd5b600660008473ffffffffffffffffffffffffffffffffffffffff1673ffffffffffffffffffffffffffffffffffffffff168152602001908152602001600020600083815260200190815260200160002054905092915050565b6000808380519060200120905060008160405160200161090b919061361f565b604051602081830303815290604052805190602001209050600080600061093189610ca6565b9250925092508673ffffffffffffffffffffffffffffffffffffffff166001858386866040516000815260200160405260405161097194939291906136d7565b6020604051602081039080840390855afa158015610993573d6000803e3d6000fd5b5050506020604051035173ffffffffffffffffffffffffffffffffffffffff1614955050505050509392505050565b6109dd83838360405180602001604052806000815250610d0e565b505050565b60006109ec610797565b8210610a2d576040517f08c379a0000000000000000000000000000000000000000000000000000000008152600401610a249061378e565b60405180910390fd5b60088281548110610a4157610a406137ae565b5b90600052602060002001549050919050565b600081805190602001209050919050565b600080610a708361149e565b9050600073ffffffffffffffffffffffffffffffffffffffff168173ffffffffffffffffffffffffffffffffffffffff1603610ae1576040517f08c379a0000000000000000000000000000000000000000000000000000000008152600401610ad890613829565b60405180910390fd5b80915050919050565b60008073ffffffffffffffffffffffffffffffffffffffff168273ffffffffffffffffffffffffffffffffffffffff1603610b5a576040517f08c379a0000000000000000000000000000000000000000000000000000000008152600401610b51906138bb565b60405180910390fd5b600360008373ffffffffffffffffffffffffffffffffffffffff1673ffffffffffffffffffffffffffffffffffffffff168152602001908152602001600020549050919050565b610ba96114db565b610bb36000611559565b565b6000600b60009054906101000a900473ffffffffffffffffffffffffffffffffffffffff16905090565b606060018054610bee906133c0565b80601f0160208091040260200160405190810160405280929190818152602001828054610c1a906133c0565b8015610c675780601f10610c3c57610100808354040283529160200191610c67565b820191906000526020600020905b815481529060010190602001808311610c4a57829003601f168201915b5050505050905090565b610c83610c7c61104f565b838361161f565b5050565b6060610ca1600b60149054906101000a900460ff1661178b565b905090565b60008060006041845114610cef576040517f08c379a0000000000000000000000000000000000000000000000000000000008152600401610ce690613927565b60405180910390fd5b6020840151925060408401519150606084015160001a90509193909250565b610d1f610d1961104f565b83611110565b610d5e576040517f08c379a0000000000000000000000000000000000000000000000000000000008152600401610d5590613587565b60405180910390fd5b610d6a848484846119fb565b50505050565b606060405180606001604052806031815260200161414e60319139610db5600b60149054906101000a900460ff166005811115610db057610daf613947565b5b611a57565b604051602001610dc69291906139a7565b604051602081830303815290604052905090565b6060610de582611b25565b9050919050565b610df46114db565b610dfe600c611c37565b600d54610e0b600c611c4d565b1115610e4c576040517f08c379a0000000000000000000000000000000000000000000000000000000008152600401610e4390613a17565b60405180910390fd5b6000610e58600c611c4d565b9050610e648382611c5b565b610e6e8183611c79565b505050565b6000600560008473ffffffffffffffffffffffffffffffffffffffff1673ffffffffffffffffffffffffffffffffffffffff16815260200190815260200160002060008373ffffffffffffffffffffffffffffffffffffffff1673ffffffffffffffffffffffffffffffffffffffff16815260200190815260200160002060009054906101000a900460ff16905092915050565b610f0f6114db565b600073ffffffffffffffffffffffffffffffffffffffff168173ffffffffffffffffffffffffffffffffffffffff1603610f7e576040517f08c379a0000000000000000000000000000000000000000000000000000000008152600401610f7590613aa9565b60405180910390fd5b610f8781611559565b50565b60007f649a51a8000000000000000000000000000000000000000000000000000000007bffffffffffffffffffffffffffffffffffffffffffffffffffffffff1916827bffffffffffffffffffffffffffffffffffffffffffffffffffffffff19161480610ffd5750610ffc82611ced565b5b9050919050565b61100d81611d67565b61104c576040517f08c379a000000000000000000000000000000000000000000000000000000000815260040161104390613829565b60405180910390fd5b50565b600033905090565b816004600083815260200190815260200160002060006101000a81548173ffffffffffffffffffffffffffffffffffffffff021916908373ffffffffffffffffffffffffffffffffffffffff160217905550808273ffffffffffffffffffffffffffffffffffffffff166110ca83610a64565b73ffffffffffffffffffffffffffffffffffffffff167f8c5be1e5ebec7d5bd14f71427d1e84f3dd0314c0f7b2291e5b200ac8c7c3b92560405160405180910390a45050565b60008061111c83610a64565b90508073ffffffffffffffffffffffffffffffffffffffff168473ffffffffffffffffffffffffffffffffffffffff16148061115e575061115d8185610e73565b5b8061119c57508373ffffffffffffffffffffffffffffffffffffffff1661118484610634565b73ffffffffffffffffffffffffffffffffffffffff16145b91505092915050565b8273ffffffffffffffffffffffffffffffffffffffff166111c582610a64565b73ffffffffffffffffffffffffffffffffffffffff161461121b576040517f08c379a000000000000000000000000000000000000000000000000000000000815260040161121290613b3b565b60405180910390fd5b600073ffffffffffffffffffffffffffffffffffffffff168273ffffffffffffffffffffffffffffffffffffffff160361128a576040517f08c379a000000000000000000000000000000000000000000000000000000000815260040161128190613bcd565b60405180910390fd5b6112978383836001611da8565b8273ffffffffffffffffffffffffffffffffffffffff166112b782610a64565b73ffffffffffffffffffffffffffffffffffffffff161461130d576040517f08c379a000000000000000000000000000000000000000000000000000000000815260040161130490613b3b565b60405180910390fd5b6004600082815260200190815260200160002060006101000a81549073ffffffffffffffffffffffffffffffffffffffff02191690556001600360008573ffffffffffffffffffffffffffffffffffffffff1673ffffffffffffffffffffffffffffffffffffffff168152602001908152602001600020600082825403925050819055506001600360008473ffffffffffffffffffffffffffffffffffffffff1673ffffffffffffffffffffffffffffffffffffffff16815260200190815260200160002060008282540192505081905550816002600083815260200190815260200160002060006101000a81548173ffffffffffffffffffffffffffffffffffffffff021916908373ffffffffffffffffffffffffffffffffffffffff160217905550808273ffffffffffffffffffffffffffffffffffffffff168473ffffffffffffffffffffffffffffffffffffffff167fddf252ad1be2c89b69c2b068fc378daa952ba7f163c4a11628f55a4df523b3ef60405160405180910390a46114998383836001611dba565b505050565b60006002600083815260200190815260200160002060009054906101000a900473ffffffffffffffffffffffffffffffffffffffff169050919050565b6114e361104f565b73ffffffffffffffffffffffffffffffffffffffff16611501610bb5565b73ffffffffffffffffffffffffffffffffffffffff1614611557576040517f08c379a000000000000000000000000000000000000000000000000000000000815260040161154e90613c39565b60405180910390fd5b565b6000600b60009054906101000a900473ffffffffffffffffffffffffffffffffffffffff16905081600b60006101000a81548173ffffffffffffffffffffffffffffffffffffffff021916908373ffffffffffffffffffffffffffffffffffffffff1602179055508173ffffffffffffffffffffffffffffffffffffffff168173ffffffffffffffffffffffffffffffffffffffff167f8be0079c531659141344cd1fd0a4f28419497f9722a3daafe3b4186f6b6457e060405160405180910390a35050565b8173ffffffffffffffffffffffffffffffffffffffff168373ffffffffffffffffffffffffffffffffffffffff160361168d576040517f08c379a000000000000000000000000000000000000000000000000000000000815260040161168490613ca5565b60405180910390fd5b80600560008573ffffffffffffffffffffffffffffffffffffffff1673ffffffffffffffffffffffffffffffffffffffff16815260200190815260200160002060008473ffffffffffffffffffffffffffffffffffffffff1673ffffffffffffffffffffffffffffffffffffffff16815260200190815260200160002060006101000a81548160ff0219169083151502179055508173ffffffffffffffffffffffffffffffffffffffff168373ffffffffffffffffffffffffffffffffffffffff167f17307eab39ab6107e8899845ad3d59bd9653f200f220920489ca2b5937696c318360405161177e9190612be1565b60405180910390a3505050565b606060068260058111156117a2576117a1613947565b5b60ff1611156117b057600080fd5b8160058111156117c3576117c2613947565b5b600060058111156117d7576117d6613947565b5b03611819576040518060400160405280600681526020017f5055424c4943000000000000000000000000000000000000000000000000000081525090506119f6565b81600581111561182c5761182b613947565b5b600160058111156118405761183f613947565b5b03611882576040518060400160405280600981526020017f4558434c5553495645000000000000000000000000000000000000000000000081525090506119f6565b81600581111561189557611894613947565b5b600260058111156118a9576118a8613947565b5b036118eb576040518060400160405280600a81526020017f434f4d4d45524349414c0000000000000000000000000000000000000000000081525090506119f6565b8160058111156118fe576118fd613947565b5b6003600581111561191257611911613947565b5b03611954576040518060400160405280601281526020017f434f4d4d45524349414c5f4e4f5f48415445000000000000000000000000000081525090506119f6565b81600581111561196757611966613947565b5b6004600581111561197b5761197a613947565b5b036119bd576040518060400160405280600881526020017f504552534f4e414c00000000000000000000000000000000000000000000000081525090506119f6565b6040518060400160405280601081526020017f504552534f4e414c5f4e4f5f484154450000000000000000000000000000000081525090505b919050565b611a068484846111a5565b611a1284848484611dc0565b611a51576040517f08c379a0000000000000000000000000000000000000000000000000000000008152600401611a4890613d37565b60405180910390fd5b50505050565b606060006001611a6684611f47565b01905060008167ffffffffffffffff811115611a8557611a84612e69565b5b6040519080825280601f01601f191660200182016040528015611ab75781602001600182028036833780820191505090505b509050600082602001820190505b600115611b1a578080600190039150507f3031323334353637383961626364656600000000000000000000000000000000600a86061a8153600a8581611b0e57611b0d613d57565b5b04945060008503611ac5575b819350505050919050565b6060611b3082611004565b6000600a60008481526020019081526020016000208054611b50906133c0565b80601f0160208091040260200160405190810160405280929190818152602001828054611b7c906133c0565b8015611bc95780601f10611b9e57610100808354040283529160200191611bc9565b820191906000526020600020905b815481529060010190602001808311611bac57829003601f168201915b505050505090506000611bda61209a565b90506000815103611bef578192505050611c32565b600082511115611c24578082604051602001611c0c9291906139a7565b60405160208183030381529060405292505050611c32565b611c2d846120b1565b925050505b919050565b6001816000016000828254019250508190555050565b600081600001549050919050565b611c75828260405180602001604052806000815250612119565b5050565b611c8282611d67565b611cc1576040517f08c379a0000000000000000000000000000000000000000000000000000000008152600401611cb890613df8565b60405180910390fd5b80600a60008481526020019081526020016000209080519060200190611ce8929190612a8a565b505050565b60007f780e9d63000000000000000000000000000000000000000000000000000000007bffffffffffffffffffffffffffffffffffffffffffffffffffffffff1916827bffffffffffffffffffffffffffffffffffffffffffffffffffffffff19161480611d605750611d5f82612174565b5b9050919050565b60008073ffffffffffffffffffffffffffffffffffffffff16611d898361149e565b73ffffffffffffffffffffffffffffffffffffffff1614159050919050565b611db484848484612256565b50505050565b50505050565b6000611de18473ffffffffffffffffffffffffffffffffffffffff166123b4565b15611f3a578373ffffffffffffffffffffffffffffffffffffffff1663150b7a02611e0a61104f565b8786866040518563ffffffff1660e01b8152600401611e2c9493929190613e6d565b6020604051808303816000875af1925050508015611e6857506040513d601f19601f82011682018060405250810190611e659190613ece565b60015b611eea573d8060008114611e98576040519150601f19603f3d011682016040523d82523d6000602084013e611e9d565b606091505b506000815103611ee2576040517f08c379a0000000000000000000000000000000000000000000000000000000008152600401611ed990613d37565b60405180910390fd5b805181602001fd5b63150b7a0260e01b7bffffffffffffffffffffffffffffffffffffffffffffffffffffffff1916817bffffffffffffffffffffffffffffffffffffffffffffffffffffffff191614915050611f3f565b600190505b949350505050565b600080600090507a184f03e93ff9f4daa797ed6e38ed64bf6a1f0100000000000000008310611fa5577a184f03e93ff9f4daa797ed6e38ed64bf6a1f0100000000000000008381611f9b57611f9a613d57565b5b0492506040810190505b6d04ee2d6d415b85acef81000000008310611fe2576d04ee2d6d415b85acef81000000008381611fd857611fd7613d57565b5b0492506020810190505b662386f26fc10000831061201157662386f26fc10000838161200757612006613d57565b5b0492506010810190505b6305f5e100831061203a576305f5e10083816120305761202f613d57565b5b0492506008810190505b612710831061205f57612710838161205557612054613d57565b5b0492506004810190505b60648310612082576064838161207857612077613d57565b5b0492506002810190505b600a8310612091576001810190505b80915050919050565b606060405180602001604052806000815250905090565b60606120bc82611004565b60006120c661209a565b905060008151116120e65760405180602001604052806000815250612111565b806120f084611a57565b6040516020016121019291906139a7565b6040516020818303038152906040525b915050919050565b61212383836123d7565b6121306000848484611dc0565b61216f576040517f08c379a000000000000000000000000000000000000000000000000000000000815260040161216690613d37565b60405180910390fd5b505050565b60007f80ac58cd000000000000000000000000000000000000000000000000000000007bffffffffffffffffffffffffffffffffffffffffffffffffffffffff1916827bffffffffffffffffffffffffffffffffffffffffffffffffffffffff1916148061223f57507f5b5e139f000000000000000000000000000000000000000000000000000000007bffffffffffffffffffffffffffffffffffffffffffffffffffffffff1916827bffffffffffffffffffffffffffffffffffffffffffffffffffffffff1916145b8061224f575061224e826125f4565b5b9050919050565b6122628484848461265e565b60018111156122a6576040517f08c379a000000000000000000000000000000000000000000000000000000000815260040161229d90613f6d565b60405180910390fd5b6000829050600073ffffffffffffffffffffffffffffffffffffffff168573ffffffffffffffffffffffffffffffffffffffff16036122ed576122e881612784565b61232c565b8373ffffffffffffffffffffffffffffffffffffffff168573ffffffffffffffffffffffffffffffffffffffff161461232b5761232a85826127cd565b5b5b600073ffffffffffffffffffffffffffffffffffffffff168473ffffffffffffffffffffffffffffffffffffffff160361236e576123698161293a565b6123ad565b8473ffffffffffffffffffffffffffffffffffffffff168473ffffffffffffffffffffffffffffffffffffffff16146123ac576123ab8482612a0b565b5b5b5050505050565b6000808273ffffffffffffffffffffffffffffffffffffffff163b119050919050565b600073ffffffffffffffffffffffffffffffffffffffff168273ffffffffffffffffffffffffffffffffffffffff1603612446576040517f08c379a000000000000000000000000000000000000000000000000000000000815260040161243d90613fd9565b60405180910390fd5b61244f81611d67565b1561248f576040517f08c379a000000000000000000000000000000000000000000000000000000000815260040161248690614045565b60405180910390fd5b61249d600083836001611da8565b6124a681611d67565b156124e6576040517f08c379a00000000000000000000000000000000000000000000000000000000081526004016124dd90614045565b60405180910390fd5b6001600360008473ffffffffffffffffffffffffffffffffffffffff1673ffffffffffffffffffffffffffffffffffffffff16815260200190815260200160002060008282540192505081905550816002600083815260200190815260200160002060006101000a81548173ffffffffffffffffffffffffffffffffffffffff021916908373ffffffffffffffffffffffffffffffffffffffff160217905550808273ffffffffffffffffffffffffffffffffffffffff16600073ffffffffffffffffffffffffffffffffffffffff167fddf252ad1be2c89b69c2b068fc378daa952ba7f163c4a11628f55a4df523b3ef60405160405180910390a46125f0600083836001611dba565b5050565b60007f01ffc9a7000000000000000000000000000000000000000000000000000000007bffffffffffffffffffffffffffffffffffffffffffffffffffffffff1916827bffffffffffffffffffffffffffffffffffffffffffffffffffffffff1916149050919050565b600181111561277e57600073ffffffffffffffffffffffffffffffffffffffff168473ffffffffffffffffffffffffffffffffffffffff16146126f25780600360008673ffffffffffffffffffffffffffffffffffffffff1673ffffffffffffffffffffffffffffffffffffffff16815260200190815260200160002060008282546126ea9190614094565b925050819055505b600073ffffffffffffffffffffffffffffffffffffffff168373ffffffffffffffffffffffffffffffffffffffff161461277d5780600360008573ffffffffffffffffffffffffffffffffffffffff1673ffffffffffffffffffffffffffffffffffffffff168152602001908152602001600020600082825461277591906140c8565b925050819055505b5b50505050565b6008805490506009600083815260200190815260200160002081905550600881908060018154018082558091505060019003906000526020600020016000909190919091505550565b600060016127da84610aea565b6127e49190614094565b90506000600760008481526020019081526020016000205490508181146128c9576000600660008673ffffffffffffffffffffffffffffffffffffffff1673ffffffffffffffffffffffffffffffffffffffff168152602001908152602001600020600084815260200190815260200160002054905080600660008773ffffffffffffffffffffffffffffffffffffffff1673ffffffffffffffffffffffffffffffffffffffff168152602001908152602001600020600084815260200190815260200160002081905550816007600083815260200190815260200160002081905550505b6007600084815260200190815260200160002060009055600660008573ffffffffffffffffffffffffffffffffffffffff1673ffffffffffffffffffffffffffffffffffffffff16815260200190815260200160002060008381526020019081526020016000206000905550505050565b6000600160088054905061294e9190614094565b905060006009600084815260200190815260200160002054905060006008838154811061297e5761297d6137ae565b5b9060005260206000200154905080600883815481106129a05761299f6137ae565b5b9060005260206000200181905550816009600083815260200190815260200160002081905550600960008581526020019081526020016000206000905560088054806129ef576129ee61411e565b5b6001900381819060005260206000200160009055905550505050565b6000612a1683610aea565b905081600660008573ffffffffffffffffffffffffffffffffffffffff1673ffffffffffffffffffffffffffffffffffffffff168152602001908152602001600020600083815260200190815260200160002081905550806007600084815260200190815260200160002081905550505050565b828054612a96906133c0565b90600052602060002090601f016020900481019282612ab85760008555612aff565b82601f10612ad157805160ff1916838001178555612aff565b82800160010185558215612aff579182015b82811115612afe578251825591602001919060010190612ae3565b5b509050612b0c9190612b10565b5090565b5b80821115612b29576000816000905550600101612b11565b5090565b6000604051905090565b600080fd5b600080fd5b60007fffffffff0000000000000000000000000000000000000000000000000000000082169050919050565b612b7681612b41565b8114612b8157600080fd5b50565b600081359050612b9381612b6d565b92915050565b600060208284031215612baf57612bae612b37565b5b6000612bbd84828501612b84565b91505092915050565b60008115159050919050565b612bdb81612bc6565b82525050565b6000602082019050612bf66000830184612bd2565b92915050565b600081519050919050565b600082825260208201905092915050565b60005b83811015612c36578082015181840152602081019050612c1b565b83811115612c45576000848401525b50505050565b6000601f19601f8301169050919050565b6000612c6782612bfc565b612c718185612c07565b9350612c81818560208601612c18565b612c8a81612c4b565b840191505092915050565b60006020820190508181036000830152612caf8184612c5c565b905092915050565b6000819050919050565b612cca81612cb7565b8114612cd557600080fd5b50565b600081359050612ce781612cc1565b92915050565b600060208284031215612d0357612d02612b37565b5b6000612d1184828501612cd8565b91505092915050565b600073ffffffffffffffffffffffffffffffffffffffff82169050919050565b6000612d4582612d1a565b9050919050565b612d5581612d3a565b82525050565b6000602082019050612d706000830184612d4c565b92915050565b612d7f81612d3a565b8114612d8a57600080fd5b50565b600081359050612d9c81612d76565b92915050565b60008060408385031215612db957612db8612b37565b5b6000612dc785828601612d8d565b9250506020612dd885828601612cd8565b9150509250929050565b612deb81612cb7565b82525050565b6000602082019050612e066000830184612de2565b92915050565b600080600060608486031215612e2557612e24612b37565b5b6000612e3386828701612d8d565b9350506020612e4486828701612d8d565b9250506040612e5586828701612cd8565b9150509250925092565b600080fd5b600080fd5b7f4e487b7100000000000000000000000000000000000000000000000000000000600052604160045260246000fd5b612ea182612c4b565b810181811067ffffffffffffffff82111715612ec057612ebf612e69565b5b80604052505050565b6000612ed3612b2d565b9050612edf8282612e98565b919050565b600067ffffffffffffffff821115612eff57612efe612e69565b5b612f0882612c4b565b9050602081019050919050565b82818337600083830152505050565b6000612f37612f3284612ee4565b612ec9565b905082815260208101848484011115612f5357612f52612e64565b5b612f5e848285612f15565b509392505050565b600082601f830112612f7b57612f7a612e5f565b5b8135612f8b848260208601612f24565b91505092915050565b600060208284031215612faa57612fa9612b37565b5b600082013567ffffffffffffffff811115612fc857612fc7612b3c565b5b612fd484828501612f66565b91505092915050565b6000819050919050565b612ff081612fdd565b82525050565b600060208201905061300b6000830184612fe7565b92915050565b600067ffffffffffffffff82111561302c5761302b612e69565b5b61303582612c4b565b9050602081019050919050565b600061305561305084613011565b612ec9565b90508281526020810184848401111561307157613070612e64565b5b61307c848285612f15565b509392505050565b600082601f83011261309957613098612e5f565b5b81356130a9848260208601613042565b91505092915050565b6000806000606084860312156130cb576130ca612b37565b5b600084013567ffffffffffffffff8111156130e9576130e8612b3c565b5b6130f586828701613084565b935050602084013567ffffffffffffffff81111561311657613115612b3c565b5b61312286828701612f66565b925050604061313386828701612d8d565b9150509250925092565b60006020828403121561315357613152612b37565b5b600061316184828501612d8d565b91505092915050565b61317381612bc6565b811461317e57600080fd5b50565b6000813590506131908161316a565b92915050565b600080604083850312156131ad576131ac612b37565b5b60006131bb85828601612d8d565b92505060206131cc85828601613181565b9150509250929050565b6000602082840312156131ec576131eb612b37565b5b600082013567ffffffffffffffff81111561320a57613209612b3c565b5b61321684828501613084565b91505092915050565b600060ff82169050919050565b6132358161321f565b82525050565b60006060820190506132506000830186612fe7565b61325d6020830185612fe7565b61326a604083018461322c565b949350505050565b6000806000806080858703121561328c5761328b612b37565b5b600061329a87828801612d8d565b94505060206132ab87828801612d8d565b93505060406132bc87828801612cd8565b925050606085013567ffffffffffffffff8111156132dd576132dc612b3c565b5b6132e987828801613084565b91505092959194509250565b6000806040838503121561330c5761330b612b37565b5b600061331a85828601612d8d565b925050602083013567ffffffffffffffff81111561333b5761333a612b3c565b5b61334785828601612f66565b9150509250929050565b6000806040838503121561336857613367612b37565b5b600061337685828601612d8d565b925050602061338785828601612d8d565b9150509250929050565b7f4e487b7100000000000000000000000000000000000000000000000000000000600052602260045260246000fd5b600060028204905060018216806133d857607f821691505b6020821081036133eb576133ea613391565b5b50919050565b7f4552433732313a20617070726f76616c20746f2063757272656e74206f776e6560008201527f7200000000000000000000000000000000000000000000000000000000000000602082015250565b600061344d602183612c07565b9150613458826133f1565b604082019050919050565b6000602082019050818103600083015261347c81613440565b9050919050565b7f4552433732313a20617070726f76652063616c6c6572206973206e6f7420746f60008201527f6b656e206f776e6572206f7220617070726f76656420666f7220616c6c000000602082015250565b60006134df603d83612c07565b91506134ea82613483565b604082019050919050565b6000602082019050818103600083015261350e816134d2565b9050919050565b7f4552433732313a2063616c6c6572206973206e6f7420746f6b656e206f776e6560008201527f72206f7220617070726f76656400000000000000000000000000000000000000602082015250565b6000613571602d83612c07565b915061357c82613515565b604082019050919050565b600060208201905081810360008301526135a081613564565b9050919050565b600081905092915050565b7f19457468657265756d205369676e6564204d6573736167653a0a333200000000600082015250565b60006135e8601c836135a7565b91506135f3826135b2565b601c82019050919050565b6000819050919050565b61361961361482612fdd565b6135fe565b82525050565b600061362a826135db565b91506136368284613608565b60208201915081905092915050565b7f455243373231456e756d657261626c653a206f776e657220696e646578206f7560008201527f74206f6620626f756e6473000000000000000000000000000000000000000000602082015250565b60006136a1602b83612c07565b91506136ac82613645565b604082019050919050565b600060208201905081810360008301526136d081613694565b9050919050565b60006080820190506136ec6000830187612fe7565b6136f9602083018661322c565b6137066040830185612fe7565b6137136060830184612fe7565b95945050505050565b7f455243373231456e756d657261626c653a20676c6f62616c20696e646578206f60008201527f7574206f6620626f756e64730000000000000000000000000000000000000000602082015250565b6000613778602c83612c07565b91506137838261371c565b604082019050919050565b600060208201905081810360008301526137a78161376b565b9050919050565b7f4e487b7100000000000000000000000000000000000000000000000000000000600052603260045260246000fd5b7f4552433732313a20696e76616c696420746f6b656e2049440000000000000000600082015250565b6000613813601883612c07565b915061381e826137dd565b602082019050919050565b6000602082019050818103600083015261384281613806565b9050919050565b7f4552433732313a2061646472657373207a65726f206973206e6f74206120766160008201527f6c6964206f776e65720000000000000000000000000000000000000000000000602082015250565b60006138a5602983612c07565b91506138b082613849565b604082019050919050565b600060208201905081810360008301526138d481613898565b9050919050565b7f696e76616c6964207369676e6174757265206c656e6774680000000000000000600082015250565b6000613911601883612c07565b915061391c826138db565b602082019050919050565b6000602082019050818103600083015261394081613904565b9050919050565b7f4e487b7100000000000000000000000000000000000000000000000000000000600052602160045260246000fd5b600061398182612bfc565b61398b81856135a7565b935061399b818560208601612c18565b80840191505092915050565b60006139b38285613976565b91506139bf8284613976565b91508190509392505050565b7f6d617820737570706c7920726561636865640000000000000000000000000000600082015250565b6000613a01601283612c07565b9150613a0c826139cb565b602082019050919050565b60006020820190508181036000830152613a30816139f4565b9050919050565b7f4f776e61626c653a206e6577206f776e657220697320746865207a65726f206160008201527f6464726573730000000000000000000000000000000000000000000000000000602082015250565b6000613a93602683612c07565b9150613a9e82613a37565b604082019050919050565b60006020820190508181036000830152613ac281613a86565b9050919050565b7f4552433732313a207472616e736665722066726f6d20696e636f72726563742060008201527f6f776e6572000000000000000000000000000000000000000000000000000000602082015250565b6000613b25602583612c07565b9150613b3082613ac9565b604082019050919050565b60006020820190508181036000830152613b5481613b18565b9050919050565b7f4552433732313a207472616e7366657220746f20746865207a65726f2061646460008201527f7265737300000000000000000000000000000000000000000000000000000000602082015250565b6000613bb7602483612c07565b9150613bc282613b5b565b604082019050919050565b60006020820190508181036000830152613be681613baa565b9050919050565b7f4f776e61626c653a2063616c6c6572206973206e6f7420746865206f776e6572600082015250565b6000613c23602083612c07565b9150613c2e82613bed565b602082019050919050565b60006020820190508181036000830152613c5281613c16565b9050919050565b7f4552433732313a20617070726f766520746f2063616c6c657200000000000000600082015250565b6000613c8f601983612c07565b9150613c9a82613c59565b602082019050919050565b60006020820190508181036000830152613cbe81613c82565b9050919050565b7f4552433732313a207472616e7366657220746f206e6f6e20455243373231526560008201527f63656976657220696d706c656d656e7465720000000000000000000000000000602082015250565b6000613d21603283612c07565b9150613d2c82613cc5565b604082019050919050565b60006020820190508181036000830152613d5081613d14565b9050919050565b7f4e487b7100000000000000000000000000000000000000000000000000000000600052601260045260246000fd5b7f45524337323155524953746f726167653a2055524920736574206f66206e6f6e60008201527f6578697374656e7420746f6b656e000000000000000000000000000000000000602082015250565b6000613de2602e83612c07565b9150613ded82613d86565b604082019050919050565b60006020820190508181036000830152613e1181613dd5565b9050919050565b600081519050919050565b600082825260208201905092915050565b6000613e3f82613e18565b613e498185613e23565b9350613e59818560208601612c18565b613e6281612c4b565b840191505092915050565b6000608082019050613e826000830187612d4c565b613e8f6020830186612d4c565b613e9c6040830185612de2565b8181036060830152613eae8184613e34565b905095945050505050565b600081519050613ec881612b6d565b92915050565b600060208284031215613ee457613ee3612b37565b5b6000613ef284828501613eb9565b91505092915050565b7f455243373231456e756d657261626c653a20636f6e736563757469766520747260008201527f616e7366657273206e6f7420737570706f727465640000000000000000000000602082015250565b6000613f57603583612c07565b9150613f6282613efb565b604082019050919050565b60006020820190508181036000830152613f8681613f4a565b9050919050565b7f4552433732313a206d696e7420746f20746865207a65726f2061646472657373600082015250565b6000613fc3602083612c07565b9150613fce82613f8d565b602082019050919050565b60006020820190508181036000830152613ff281613fb6565b9050919050565b7f4552433732313a20746f6b656e20616c7265616479206d696e74656400000000600082015250565b600061402f601c83612c07565b915061403a82613ff9565b602082019050919050565b6000602082019050818103600083015261405e81614022565b9050919050565b7f4e487b7100000000000000000000000000000000000000000000000000000000600052601160045260246000fd5b600061409f82612cb7565b91506140aa83612cb7565b9250828210156140bd576140bc614065565b5b828203905092915050565b60006140d382612cb7565b91506140de83612cb7565b9250827fffffffffffffffffffffffffffffffffffffffffffffffffffffffffffffffff0382111561411357614112614065565b5b828201905092915050565b7f4e487b7100000000000000000000000000000000000000000000000000000000600052603160045260246000fdfe61723a2f2f7a6d63315754737049684679565938326277664149634945784c4648356c55634848554e307758673457382fa2646970667358221220463e0484daa03ac2cc0ea547833bfb26db925089aa0d2e476ff7fccd0203c5a764736f6c634300080d0033",
  "linkReferences": {},
  "deployedLinkReferences": {}
}